{
  "contractName": "TransferSwap",
  "abi": [
    {
      "inputs": [],
      "name": "poolFee",
      "outputs": [
        {
          "internalType": "uint24",
          "name": "",
          "type": "uint24"
        }
      ],
      "stateMutability": "view",
      "type": "function",
      "constant": true
    },
    {
      "inputs": [],
      "name": "puni",
      "outputs": [
        {
          "internalType": "address",
          "name": "",
          "type": "address"
        }
      ],
      "stateMutability": "view",
      "type": "function",
      "constant": true
    },
    {
      "inputs": [],
      "name": "quoter",
      "outputs": [
        {
          "internalType": "contract IQuoter",
          "name": "",
          "type": "address"
        }
      ],
      "stateMutability": "view",
      "type": "function",
      "constant": true
    },
    {
      "inputs": [],
      "name": "routerAddress",
      "outputs": [
        {
          "internalType": "address",
          "name": "",
          "type": "address"
        }
      ],
      "stateMutability": "view",
      "type": "function",
      "constant": true
    },
    {
      "inputs": [],
      "name": "swapRouter",
      "outputs": [
        {
          "internalType": "contract ISwapRouter",
          "name": "",
          "type": "address"
        }
      ],
      "stateMutability": "view",
      "type": "function",
      "constant": true
    },
    {
      "inputs": [],
      "name": "vky",
      "outputs": [
        {
          "internalType": "address",
          "name": "",
          "type": "address"
        }
      ],
      "stateMutability": "view",
      "type": "function",
      "constant": true
    },
    {
      "inputs": [
        {
          "internalType": "uint256",
          "name": "puniAmount",
          "type": "uint256"
        }
      ],
      "name": "getEstimated",
      "outputs": [
        {
          "internalType": "uint256",
          "name": "",
          "type": "uint256"
        }
      ],
      "stateMutability": "nonpayable",
      "type": "function"
    },
    {
      "inputs": [
        {
          "internalType": "uint256",
          "name": "amountIn",
          "type": "uint256"
        }
      ],
      "name": "swapExactInputSingle",
      "outputs": [
        {
          "internalType": "uint256",
          "name": "amountOut",
          "type": "uint256"
        }
      ],
      "stateMutability": "nonpayable",
      "type": "function"
    },
    {
      "inputs": [
        {
          "internalType": "uint256",
          "name": "amountOut",
          "type": "uint256"
        },
        {
          "internalType": "uint256",
          "name": "amountInMaximum",
          "type": "uint256"
        }
      ],
      "name": "swapExactOutputSingle",
      "outputs": [
        {
          "internalType": "uint256",
          "name": "amountIn",
          "type": "uint256"
        }
      ],
      "stateMutability": "nonpayable",
      "type": "function"
    }
  ],
  "bytecode": "0x60a060405273e592427a0aece92de3edee1f18e0157c0586156473ffffffffffffffffffffffffffffffffffffffff1660809073ffffffffffffffffffffffffffffffffffffffff1681525034801561005757600080fd5b506080516113066100966000396000818161023601528181610324015281816104bf0152818161051d0152818161060a01526106c801526113066000f3fe608060405234801561001057600080fd5b50600436106100935760003560e01c8063be4fdbee11610066578063be4fdbee14610134578063c31c9c0714610152578063c4b69a1814610170578063c6bbd5a7146101a0578063f9f64da0146101be57610093565b8063089fe6aa146100985780633268cc56146100b657806373bd43ad146100d4578063abdc805414610104575b600080fd5b6100a06101dc565b6040516100ad9190610b70565b60405180910390f35b6100be6101e2565b6040516100cb9190610bcc565b60405180910390f35b6100ee60048036038101906100e99190610c22565b6101fa565b6040516100fb9190610c5e565b60405180910390f35b61011e60048036038101906101199190610c22565b6103c6565b60405161012b9190610c5e565b60405180910390f35b61013c6104a5565b6040516101499190610bcc565b60405180910390f35b61015a6104bd565b6040516101679190610cd8565b60405180910390f35b61018a60048036038101906101859190610cf3565b6104e1565b6040516101979190610c5e565b60405180910390f35b6101a8610720565b6040516101b59190610d54565b60405180910390f35b6101c6610738565b6040516101d39190610bcc565b60405180910390f35b61271081565b73e592427a0aece92de3edee1f18e0157c0586156481565b600061021c731a0bb9499d633b36a1d88f3f3da763d276f903b6333085610750565b61025b731a0bb9499d633b36a1d88f3f3da763d276f903b67f0000000000000000000000000000000000000000000000000000000000000000846108a8565b6000604051806101000160405280731a0bb9499d633b36a1d88f3f3da763d276f903b673ffffffffffffffffffffffffffffffffffffffff16815260200173a673a9cc54466dc36be3cadb1efd1b3bfc716bfe73ffffffffffffffffffffffffffffffffffffffff16815260200161271062ffffff1681526020013373ffffffffffffffffffffffffffffffffffffffff16815260200142815260200184815260200160008152602001600073ffffffffffffffffffffffffffffffffffffffff1681525090507f000000000000000000000000000000000000000000000000000000000000000073ffffffffffffffffffffffffffffffffffffffff1663414bf389826040518263ffffffff1660e01b815260040161037b9190610e4d565b6020604051808303816000875af115801561039a573d6000803e3d6000fd5b505050506040513d601f19601f820116820180604052508101906103be9190610e7e565b915050919050565b600080731a0bb9499d633b36a1d88f3f3da763d276f903b69050600073a673a9cc54466dc36be3cadb1efd1b3bfc716bfe905060006127109050600073b27308f9f90d607463bb33ea1bebb41c27ce5ab673ffffffffffffffffffffffffffffffffffffffff1663f7729d438585858a866040518663ffffffff1660e01b8152600401610457959493929190610eba565b6020604051808303816000875af1158015610476573d6000803e3d6000fd5b505050506040513d601f19601f8201168201806040525081019061049a9190610e7e565b945050505050919050565b73a673a9cc54466dc36be3cadb1efd1b3bfc716bfe81565b7f000000000000000000000000000000000000000000000000000000000000000081565b6000610503731a0bb9499d633b36a1d88f3f3da763d276f903b6333085610750565b610542731a0bb9499d633b36a1d88f3f3da763d276f903b67f0000000000000000000000000000000000000000000000000000000000000000846108a8565b6000604051806101000160405280731a0bb9499d633b36a1d88f3f3da763d276f903b673ffffffffffffffffffffffffffffffffffffffff16815260200173a673a9cc54466dc36be3cadb1efd1b3bfc716bfe73ffffffffffffffffffffffffffffffffffffffff16815260200161271062ffffff1681526020013373ffffffffffffffffffffffffffffffffffffffff168152602001428152602001858152602001848152602001600073ffffffffffffffffffffffffffffffffffffffff1681525090507f000000000000000000000000000000000000000000000000000000000000000073ffffffffffffffffffffffffffffffffffffffff1663db3e2198826040518263ffffffff1660e01b81526004016106619190610faf565b6020604051808303816000875af1158015610680573d6000803e3d6000fd5b505050506040513d601f19601f820116820180604052508101906106a49190610e7e565b915082821015610719576106ee731a0bb9499d633b36a1d88f3f3da763d276f903b67f000000000000000000000000000000000000000000000000000000000000000060006108a8565b610718731a0bb9499d633b36a1d88f3f3da763d276f903b63384866107139190610ffa565b6109fd565b5b5092915050565b73b27308f9f90d607463bb33ea1bebb41c27ce5ab681565b731a0bb9499d633b36a1d88f3f3da763d276f903b681565b6000808573ffffffffffffffffffffffffffffffffffffffff166323b872dd60e01b8686866040516024016107879392919061102e565b604051602081830303815290604052907bffffffffffffffffffffffffffffffffffffffffffffffffffffffff19166020820180517bffffffffffffffffffffffffffffffffffffffffffffffffffffffff83818316178352505050506040516107f191906110d6565b6000604051808303816000865af19150503d806000811461082e576040519150601f19603f3d011682016040523d82523d6000602084013e610833565b606091505b5091509150818015610861575060008151148061086057508080602001905181019061085f9190611125565b5b5b6108a0576040517f08c379a0000000000000000000000000000000000000000000000000000000008152600401610897906111af565b60405180910390fd5b505050505050565b6000808473ffffffffffffffffffffffffffffffffffffffff1663095ea7b360e01b85856040516024016108dd9291906111cf565b604051602081830303815290604052907bffffffffffffffffffffffffffffffffffffffffffffffffffffffff19166020820180517bffffffffffffffffffffffffffffffffffffffffffffffffffffffff838183161783525050505060405161094791906110d6565b6000604051808303816000865af19150503d8060008114610984576040519150601f19603f3d011682016040523d82523d6000602084013e610989565b606091505b50915091508180156109b757506000815114806109b65750808060200190518101906109b59190611125565b5b5b6109f6576040517f08c379a00000000000000000000000000000000000000000000000000000000081526004016109ed90611244565b60405180910390fd5b5050505050565b6000808473ffffffffffffffffffffffffffffffffffffffff1663a9059cbb60e01b8585604051602401610a329291906111cf565b604051602081830303815290604052907bffffffffffffffffffffffffffffffffffffffffffffffffffffffff19166020820180517bffffffffffffffffffffffffffffffffffffffffffffffffffffffff8381831617835250505050604051610a9c91906110d6565b6000604051808303816000865af19150503d8060008114610ad9576040519150601f19603f3d011682016040523d82523d6000602084013e610ade565b606091505b5091509150818015610b0c5750600081511480610b0b575080806020019051810190610b0a9190611125565b5b5b610b4b576040517f08c379a0000000000000000000000000000000000000000000000000000000008152600401610b42906112b0565b60405180910390fd5b5050505050565b600062ffffff82169050919050565b610b6a81610b52565b82525050565b6000602082019050610b856000830184610b61565b92915050565b600073ffffffffffffffffffffffffffffffffffffffff82169050919050565b6000610bb682610b8b565b9050919050565b610bc681610bab565b82525050565b6000602082019050610be16000830184610bbd565b92915050565b600080fd5b6000819050919050565b610bff81610bec565b8114610c0a57600080fd5b50565b600081359050610c1c81610bf6565b92915050565b600060208284031215610c3857610c37610be7565b5b6000610c4684828501610c0d565b91505092915050565b610c5881610bec565b82525050565b6000602082019050610c736000830184610c4f565b92915050565b6000819050919050565b6000610c9e610c99610c9484610b8b565b610c79565b610b8b565b9050919050565b6000610cb082610c83565b9050919050565b6000610cc282610ca5565b9050919050565b610cd281610cb7565b82525050565b6000602082019050610ced6000830184610cc9565b92915050565b60008060408385031215610d0a57610d09610be7565b5b6000610d1885828601610c0d565b9250506020610d2985828601610c0d565b9150509250929050565b6000610d3e82610ca5565b9050919050565b610d4e81610d33565b82525050565b6000602082019050610d696000830184610d45565b92915050565b610d7881610bab565b82525050565b610d8781610b52565b82525050565b610d9681610bec565b82525050565b610da581610b8b565b82525050565b61010082016000820151610dc26000850182610d6f565b506020820151610dd56020850182610d6f565b506040820151610de86040850182610d7e565b506060820151610dfb6060850182610d6f565b506080820151610e0e6080850182610d8d565b5060a0820151610e2160a0850182610d8d565b5060c0820151610e3460c0850182610d8d565b5060e0820151610e4760e0850182610d9c565b50505050565b600061010082019050610e636000830184610dab565b92915050565b600081519050610e7881610bf6565b92915050565b600060208284031215610e9457610e93610be7565b5b6000610ea284828501610e69565b91505092915050565b610eb481610b8b565b82525050565b600060a082019050610ecf6000830188610bbd565b610edc6020830187610bbd565b610ee96040830186610b61565b610ef66060830185610c4f565b610f036080830184610eab565b9695505050505050565b61010082016000820151610f246000850182610d6f565b506020820151610f376020850182610d6f565b506040820151610f4a6040850182610d7e565b506060820151610f5d6060850182610d6f565b506080820151610f706080850182610d8d565b5060a0820151610f8360a0850182610d8d565b5060c0820151610f9660c0850182610d8d565b5060e0820151610fa960e0850182610d9c565b50505050565b600061010082019050610fc56000830184610f0d565b92915050565b7f4e487b7100000000000000000000000000000000000000000000000000000000600052601160045260246000fd5b600061100582610bec565b915061101083610bec565b925082820390508181111561102857611027610fcb565b5b92915050565b60006060820190506110436000830186610bbd565b6110506020830185610bbd565b61105d6040830184610c4f565b949350505050565b600081519050919050565b600081905092915050565b60005b8381101561109957808201518184015260208101905061107e565b60008484015250505050565b60006110b082611065565b6110ba8185611070565b93506110ca81856020860161107b565b80840191505092915050565b60006110e282846110a5565b915081905092915050565b60008115159050919050565b611102816110ed565b811461110d57600080fd5b50565b60008151905061111f816110f9565b92915050565b60006020828403121561113b5761113a610be7565b5b600061114984828501611110565b91505092915050565b600082825260208201905092915050565b7f5354460000000000000000000000000000000000000000000000000000000000600082015250565b6000611199600383611152565b91506111a482611163565b602082019050919050565b600060208201905081810360008301526111c88161118c565b9050919050565b60006040820190506111e46000830185610bbd565b6111f16020830184610c4f565b9392505050565b7f5341000000000000000000000000000000000000000000000000000000000000600082015250565b600061122e600283611152565b9150611239826111f8565b602082019050919050565b6000602082019050818103600083015261125d81611221565b9050919050565b7f5354000000000000000000000000000000000000000000000000000000000000600082015250565b600061129a600283611152565b91506112a582611264565b602082019050919050565b600060208201905081810360008301526112c98161128d565b905091905056fea2646970667358221220fd57eac097e97bdfa241a5ed49bd2146a357600cc840f20d84b537c7d6b9974b64736f6c63430008110033",
  "immutableReferences": {
    "434": [
      {
        "length": 32,
        "start": 566
      },
      {
        "length": 32,
        "start": 804
      },
      {
        "length": 32,
        "start": 1215
      },
      {
        "length": 32,
        "start": 1309
      },
      {
        "length": 32,
        "start": 1546
      },
      {
        "length": 32,
        "start": 1736
      }
    ]
  },
  "source": "// SPDX-License-Identifier: GPL-2.0-or-later\npragma solidity 0.8.17;\npragma abicoder v2;\n\nimport '@uniswap/v3-periphery/contracts/libraries/TransferHelper.sol';\nimport '@uniswap/v3-periphery/contracts/interfaces/ISwapRouter.sol';\nimport '@uniswap/v3-periphery/contracts/interfaces/IQuoter.sol';\n\n\ncontract TransferSwap {\n    \n     address public constant routerAddress = 0xE592427A0AEce92De3Edee1F18E0157C05861564;\n    ISwapRouter public immutable swapRouter = ISwapRouter(routerAddress);\n    IQuoter public constant quoter = IQuoter(0xb27308f9F90D607463bb33eA1BeBb41C27CE5AB6);\n\n   \n    address public constant puni =  0x1a0bb9499D633B36a1d88F3F3Da763d276f903B6;\n    address public constant vky = 0xA673a9cc54466Dc36Be3cadB1EfD1b3BfC716BFE;\n   \n   \n    uint24 public constant poolFee = 10000;\n\n    function getEstimated(uint puniAmount) external returns (uint256) {\n     address tokenIn = puni;\n     address tokenOut = vky;\n     uint24 fee = poolFee;\n     uint160 sqrtPriceLimitX96 = 0;\n\n     return quoter.quoteExactInputSingle(\n         tokenIn,\n         tokenOut,\n         fee,\n         puniAmount,\n         sqrtPriceLimitX96\n      );\n    }\n\n   \n   \n    function swapExactInputSingle(uint256 amountIn) external returns (uint256 amountOut) {\n       \n        TransferHelper.safeTransferFrom(puni, msg.sender, address(this), amountIn);\n\n        \n        TransferHelper.safeApprove(puni, address(swapRouter), amountIn);\n\n       \n        ISwapRouter.ExactInputSingleParams memory params =\n            ISwapRouter.ExactInputSingleParams({\n                tokenIn: puni,\n                tokenOut: vky,\n                fee: poolFee,\n                recipient: msg.sender,\n                deadline: block.timestamp,\n                amountIn: amountIn,\n                amountOutMinimum: 0,\n                sqrtPriceLimitX96: 0\n            });\n\n        // The call to `exactInputSingle` executes the swap.\n        amountOut = swapRouter.exactInputSingle(params);\n    }\n\n\n    function swapExactOutputSingle(uint256 amountOut, uint256 amountInMaximum) external returns (uint256 amountIn) {\n       \n        TransferHelper.safeTransferFrom(puni, msg.sender, address(this), amountInMaximum);\n\n        // In production, you should choose the maximum amount to spend based on oracles or other data sources to acheive a better swap.\n        TransferHelper.safeApprove(puni, address(swapRouter), amountInMaximum);\n\n        ISwapRouter.ExactOutputSingleParams memory params =\n            ISwapRouter.ExactOutputSingleParams({\n                tokenIn: puni,\n                tokenOut: vky,\n                fee: poolFee,\n                recipient: msg.sender,\n                deadline: block.timestamp,\n                amountOut: amountOut,\n                amountInMaximum: amountInMaximum,\n                sqrtPriceLimitX96: 0\n            });\n\n        // Executes the swap returning the amountIn needed to spend to receive the desired amountOut.\n        amountIn = swapRouter.exactOutputSingle(params);\n\n        if (amountIn < amountInMaximum) {\n            TransferHelper.safeApprove(puni, address(swapRouter), 0);\n            TransferHelper.safeTransfer(puni, msg.sender, amountInMaximum - amountIn);\n        }\n    }\n}",
  "sourcePath": "/Users/apple/Desktop/Eth-Projects/uniswap/contracts/TransferSwap.sol",
  "compiler": {
    "name": "solc",
    "version": "0.8.17+commit.8df45f5f.Emscripten.clang"
  },
  "schemaVersion": "3.4.11",
  "updatedAt": "2023-03-05T10:23:54.936Z",
  "networkType": "ethereum",
  "devdoc": {
    "kind": "dev",
    "methods": {},
    "version": 1
  },
  "userdoc": {
    "kind": "user",
    "methods": {},
    "version": 1
  }
}